:1000000012C02BC02AC029C028C027C026C025C0C6
:1000100024C023C022C021C020C01FC01EC01DC0DC
:100020001CC01BC01AC011241FBECFE5D4E0DEBF28
:10003000CDBF11E0A0E6B0E0E4EDF0E002C0059035
:100040000D92A039B107D9F711E0A0E9B1E001C0E4
:100050001D92A039B107E1F728C0D2CFC19898E02E
:10006000C09887FF02C0C29A01C0C298C09A91503E
:1000700011F0880FF5CF08951F93162FC198EEDF6A
:10008000812FECDFC19A1F91089560E089E0F4DFD1
:1000900063E08AE0F1DF67E08BE0EEDF61E08CE0B7
:1000A000EBDF60E08FE0E8DF08950F931F93CF93BD
:1000B000DF938FEF87BB18BAC0E0D0E000E610E016
:1000C000F80161918F018C2FD7DF2196C830D105BF
:0400D000B9F7FFCFAE
:1000D4003C4242424242423C10181410101010108C
:1000E4007E02027E4040407E3E02023E02023E000C
:1000F40008182848FE0808083C20203C04043C005A
:100104003C20203C24243C003E2204080808080823
:10011400003E22223E22223E3E22223E0202023E95
:100124000814223E222222223C22223E22223C0089
:100134003C40404040403C007C42424242427C00C1
:100144007C40407C4040407C7C40407C404040407F
:100154003C4040404044443C4444447C4444444443
:100164007C1010101010107C3C0808080808483057
:100174000024283020302824404040404040407C27
:1001840081C3A59981818181004262524A4642001D
:100194003C4242424242423C3C2222223C20202019
:1001A4001C2222222226221D3C2222223C242221FD
:1001B400001E20203E02023C003E080808080808F1
:1001C400424242424242221C424242424242241899
:1001D40000494949492A1C000041221408142241BB
:1001E4004122140808080808007F02040810207F30
:1001F40000000000000000000000000000000000FB
:00000001FF
